:020000040800F2
:10000000580D002089010008F31F0008391100086D
:10001000EF1F0008DD0500085D5E0008000000001D
:10002000000000000000000000000000EF340008A5
:10003000210C00080000000079200008C93D0008DC
:10004000A3010008A3010008A3010008A301000800
:10005000A3010008A3010008A3010008A3010008F0
:10006000A3010008A3010008A3010008A3010008E0
:10007000A3010008A3010008A3010008A3010008D0
:10008000A3010008A3010008A3010008A3010008C0
:10009000C55D0008A3010008A3010008A301000832
:1000A000A301000881460008A3010008A30100087D
:1000B000A3010008A3010008A3010008A301000890
:1000C000A3010008A3010008A3010008A301000880
:1000D000A301000809580008D15900089D5B0008D9
:1000E000A3010008A3010008A301000800F002F822
:1000F00000F03AF80AA090E8000C82448344AAF188
:100100000107DA4501D100F02FF8AFF2090EBAE885
:100110000F0013F0010F18BFFB1A43F0010318473B
:10012000106E0000306E0000103A24BF78C878C10D
:10013000FAD8520724BF30C830C144BF04680C60ED
:10014000704700000023002400250026103A28BF35
:1001500078C1FBD8520728BF30C148BF0B60704739
:100160001FB51FBD10B510BD00F033F81146FFF7E5
:10017000F7FF05F0F9FF00F051F803B4FFF7F2FFC5
:1001800003BC05F07FFF000009488047094800478D
:10019000FEE7FEE7FEE7FEE7FEE7FEE7FEE7FEE737
:1001A000FEE7FEE704480549054A064B7047000094
:1001B000CD3D0008ED00000858070020580D002034
:1001C0005809002058090020704770477047704751
:1001D0007047754600F028F8AE460500694653465C
:1001E00020F00700854618B020B5FFF7DBFFBDE81B
:1001F00020404FF000064FF000074FF000084FF08E
:10020000000B21F00701AC46ACE8C009ACE8C0091E
:10021000ACE8C009ACE8C0098D4670470446AFF3AE
:1002200000802046FFF7A9FF00487047F406002031
:1002300010B50446E078032830D18F488078E0B9C3
:1002400001208E49087100208B49087148710120F6
:100250008870C8708A498872002020764FF4005157
:10026000884800F04EFF4FF40041874800F049FFF6
:10027000002086494870087014E001207F49087109
:100280007D490871487100208870C87000F024F919
:1002900000207B49887101F095F803E0E07802289E
:1002A00000D000BF607A032827D10120734908716C
:1002B00020768103734800F024FF4FF40041724818
:1002C00000F01FFF72484079012809D102207049CF
:1002D000487101206A4948736C4800F009FE21E02A
:1002E0006B48407902281DD1012069494871644951
:1002F0000873664800F0FCFD14E0607A022811D013
:10030000607A01280ED15D494870207681035D48EE
:1003100000F0F7FE4FF400415B4800F0F2FE5B484E
:1003200000F068FDE07B03280ED1012053490871DD
:1003300058480079012803D100205649087121E06E
:100340000120544908711DE0E07B02281AD0E07BAF
:10035000012817D1494948700220207641034948B5
:1003600000F0CFFE4FF40051464800F0CAFE4FF4B3
:100370000041454800F0C7FE4648407910B91E20AC
:1003800045490872607D032814D101203B4908715A
:10039000414908700871002088718870032081F835
:1003A00048004FF48041374800F0ABFE002034494C
:1003B00088715FE0607D02285CD0607D012859D1A2
:1003C0002E4948700020354908764FF400412E48E8
:1003D00000F097FE4FF400512A4800F092FE0020F2
:1003E0002B4948712B4948712B480078012841D18D
:1003F0002948007901283DD1274890F84800042871
:100400000ED1C1021F4800F07EFE0520224981F86E
:1004100048000846806B48620846C06B086329E0C4
:100420001D4890F8480003280FD14FF4804116482A
:1004300000F069FE0420184981F848000846806BE6
:1004400008620846C06BC86214E0134890F8480080
:1004500005280FD101200A4988720F48806B0E4988
:1004600088620846C06B4863072081F84800002076
:10047000C871C87010BD0000180000208200002064
:100480008B00002000100140000C01408C05002072
:100490002E00002034000020C80500206800002045
:1004A00000218171018141818181C181018241826B
:1004B0008182C182417641838183C18301844184E9
:1004C0008184C184018580F82A1080F82B1080F87F
:1004D0002C10C1850186704710B50021014804F039
:1004E00057F910BD002C014010B50121034804F05C
:1004F0004FF90121014804F03FF910BD002C0140E3
:1005000010B53448407801281FD13248C079401CCA
:100510003049C8710846C0791E280FDD0020C87117
:10052000FFF7DAFF00202B4948702B48807801281C
:1005300004D12949C8700020487108712548C07944
:10054000012846D1FFF7D0FF43E0224880780128F8
:100550001ED12048007A401C1E4908720846007AC5
:100560001E280EDD00200872FFF7B6FF1948C0787C
:10057000401CC0B21749C870022802DB00208870F6
:10058000C8701448007A012823D1FFF7ADFF20E09E
:1005900010480079012816D10E488079401C0D4979
:1005A0008871084680793C2806DD00208871FFF7B5
:1005B00093FF00200749087106488079012808D177
:1005C000FFF792FF05E00020024948708870FFF7AE
:1005D00083FF10BD820000201800002000BFFEE74E
:1005E00000B589B00121042001F07EFD01214806FB
:1005F00001F05AFD4FF48050ADF8200003208DF833
:10060000220018208DF8230008A9254800F09CFC42
:100610004FF40060ADF8200048208DF8230008A9B1
:100620001F4800F091FC00208DF81A008DF81B0087
:100630008DF81C0001208DF81D0000208DF81E0093
:100640008DF81F008DF816008DF8170005208DF825
:10065000180000208DF819001020ADF8140005A92D
:10066000104800F0A5F800208DF80E008DF80F005E
:1006700001208DF810000020ADF80400ADF8060050
:10068000ADF80800ADF80A00ADF80C0001208DF8B7
:10069000110001A800F008F8002009B000BD00001A
:1006A000000801400064004010B50021837A012257
:1006B00002FA03F13D4A126842F001023B4B1A6014
:1006C0003A4A1C3212688A43384B1C331A60027B48
:1006D000CAB9364A0C3212688A43344B0C331A605A
:1006E0004288C38842EA0343304A4032847A42F85F
:1006F00034300288838842EA03432C4A4032847AA9
:1007000002EBC4025360027B012A19D1274A0C3242
:1007100012680A43254B0C331A604288038842EA68
:100720000343224A4032847A42F83430C2888388B4
:1007300042EA03431D4A4032847A02EBC40253600A
:10074000C27A3AB9194A121D12688A43174B1B1D07
:100750001A6006E0154A121D12680A43134B1B1D4E
:100760001A60028932B9114A143212688A430F4B57
:1007700014331A600289012A06D10C4A1432126815
:100780000A430A4B14331A60427B012A06D1074AF6
:100790001C3212680A43054B1C331A60034A126864
:1007A00022F00102014B1A6010BD000000660040FB
:1007B00030B5024600200023146824F002041460BF
:1007C000146844F00104146000E05B1C546804F0F9
:1007D00001041CB94FF6FF74A342F6D1546804F02B
:1007E00001040CB900206CE08C79012C04D1146850
:1007F00044F08004146003E0146824F08004146062
:10080000CC79012C04D1146844F04004146003E056
:10081000146824F0400414600C7A012C04D114688C
:1008200044F02004146003E0146824F020041460F1
:100830004C7A012C04D1146844F01004146003E0D5
:10084000146824F0100414608C7A012C04D114680C
:1008500044F00804146003E0146824F008041460F1
:10086000CC7A012C04D1146844F00404146003E031
:10087000146824F0040414608C78A407CD7844EA4A
:1008800005640D7944EA05444D7944EA05540D8820
:100890006D1E2C43D461146824F0010414600023FD
:1008A00000E05B1C546804F001041CB14FF6FF74B7
:1008B000A342F6D1546804F001040CB1002000E01A
:1008C000012030BD10B500F5D87303EB01131B6890
:1008D00003F004031372137A53B900F5D87303EBD2
:1008E00001131B6840F2FF7404EA5353136009E0DC
:1008F00000F5D87303EB01131B686FF0604404EA42
:10090000D303536000F5D87303EB01131B6803F0A6
:100910000203537200F5D87303EB01135B6803F015
:100920000F03937200F5D87303EB01135B681B0A86
:10093000D37400F5D87303EB01139B68D37200F5F1
:10094000D87303EB01139B681C0A147300F5D8736A
:1009500003EB01139B681C0C547300F5D87303EB75
:1009600001139B681B0E937300F5D87303EB0113FF
:10097000DB68D37300F5D87303EB0113DB681C0A43
:10098000147400F5D87303EB0113DB681C0C54746A
:1009900000F5D87303EB0113DB681B0E937421B9C8
:1009A000C36843F02003C36003E0036943F02003FE
:1009B000036110BDF0B585B007460D460024122036
:1009C00000901748019004208DF8080000208DF851
:1009D00009008DF80A5000BF05E0395D0DF10B00EC
:1009E0000155601C84B2AC42F7DB69460D4800F04B
:1009F0001BF80646002401E0601C84B23146094819
:100A000000F0A6F818B940F2E2408442F4DB40F26C
:100A1000E240844202DB012005B0F0BD0020FBE78C
:100A2000F9F7E0180064004010B502460020936812
:100A300003F08063B3F1806F00D110E0936803F09E
:100A40000063B3F1006F01D1012008E0936803F067
:100A50008053B3F1805F01D1022000E0042004281C
:100A600074D002F5C07303EB00131B6803F001049C
:100A700002F5C07303EB00131C600B7A7BB94B7A51
:100A80000C8843EA445302F5C07404EB0014246854
:100A9000234302F5C07404EB0014236010E00B7ACA
:100AA0004C6843EAC4034C7A234302F5C07404EB58
:100AB00000142468234302F5C07404EB001423607F
:100AC0008B7A03F00F038B7202F5C07303EB0013F4
:100AD0005B6823F00F0402F5C07303EB00135C6046
:100AE00002F5C07303EB00135B688C7A234302F5B5
:100AF000C07404EB001463608B7B1C064B7B44EAE0
:100B000003440B7B44EA0323CC7A234302F5C074ED
:100B100004EB0014A3608B7C1C064B7C44EA03446A
:100B20000B7C44EA0323CC7B234302F5C07404EB23
:100B30000014E36002F5C07303EB00131B6843F07D
:100B4000010402F5C07303EB00131C6010BD00002C
:100B500010B50246002321B1012907D002290FD187
:100B600009E090681D4C00EA04030BE090681C4CFF
:100B700000EA040306E090681A4C00EA040301E06E
:100B8000002300BF00BF184C181BA34216D007DC7F
:100B900083B16FF08060184470B1022818D111E061
:100BA000B0F5007F10D0114C204448B1B0F5003FA3
:100BB0000ED10BE002230DE000230BE0002309E03F
:100BC000002307E0012305E0012303E0012301E006
:100BD000002300BF00BFD8B210BD00000300000416
:100BE0000003000800000310000100080001FFF7E7
:100BF00030B502460B460021002000BF0AE0545CDD
:100C000084EA2024054D35F8144084EA0024A0B27B
:100C10004C1CE1B29942F2DB30BD0000306D00089F
:100C20007047000030B5044604254FF4302000F032
:100C30006FF80546042D17D10C48006940F00200FA
:100C40000A49086108464461006940F040000861B3
:100C50004FF4302000F05CF805460448006941F686
:100C6000FD71084001490861284630BD002002405E
:100C700004200B49C96801F0010109B101200EE00F
:100C80000749C96801F0040109B1022007E00449DD
:100C9000C96801F0100109B1032000E00420704789
:100CA000002002400348006940F0800001490861CB
:100CB000704700000020024070B504460D4604262F
:100CC000F00200F025F80646042E11D1094800690B
:100CD00040F00100074908612580F00200F018F893
:100CE00006460448006941F6FE7108400149086162
:100CF000304670BD00200240024803494860034866
:100D0000486070472301674500200240AB89EFCD62
:100D100000B502460423FFF7ABFF034603E0FFF7ED
:100D2000A7FF0346521E012B01D1002AF7D102B9B9
:100D30000523184600BD000010B50446052204F145
:100D40000E01294802F07CFB052204F1220127480C
:100D500002F076FBE08A4AF6AA21884211D1E089A6
:100D6000218A4840618A4840A18A884209D1E089A5
:100D70001F494862208A0862608A88620120A07048
:100D800005E000201A49486208628862A070608D00
:100D90004AF6AA21884211D1608CA18C4840E18C8E
:100DA0004840218D884209D1608C11490863A08C8C
:100DB000C862E08C48630120E07005E000200C4927
:100DC0000863C8624863E070A078012807D1E07822
:100DD000012804D10720064981F8480003E00120DA
:100DE000034981F8480010BD00780008007400082D
:100DF000C805002010B50446032204F132010B4857
:100E000002F01EFBA08E4AF6AA2188420AD1608E0B
:100E1000A18E4840E18E884204D194F83200044902
:100E2000487102E001200249487110BD007C0008B1
:100E30002E00002010B504462A48008E2083294841
:100E4000808D60832748808EA0832648008E2549A8
:100E5000898D48402349898E4840E0834AF6AA217B
:100E600021842048808CA0801E48008CE0801D4892
:100E7000008D20811B48808C1A49098C48401949F3
:100E8000098D484060814AF6AA21A1810522211DD1
:100E9000154802F0E9FA052204F11801134802F09E
:100EA000E3FA052204F10E010F4802F0C9FA052207
:100EB00004F122010D4802F0C3FAA18A608981423F
:100EC00005D1E18AA089814201D101202070218DC4
:100ED000E08B814205D1618D208C814201D10120BE
:100EE000607010BDC805002000780008007400087C
:100EF00010B5044612484079A0854AF6AA21E1853A
:100F00000F48407948402086032204F12C010D4807
:100F100002F0AAFA032204F132010A4802F090FA20
:100F2000608EA18D884207D1E18E208E814203D14F
:100F3000012084F8380002E0002084F8380010BD59
:100F40002E000020007C00082DE9F041024600251B
:100F50000026002000230024002791F803C00CF095
:100F60000F0591F803C00CF0100CBCF1000F03D07A
:100F700091F802C04CEA050591F800C0BCF1000FE1
:100F800031D0146800202BE04FF0010C0CFA00F374
:100F9000B1F800C00CEA03069E4220D183004FF056
:100FA0000F0C0CFA03F7BC4305FA03FC4CEA0404EB
:100FB00091F803C0BCF1280F06D14FF0010C0CFAD8
:100FC00000FCC2F814C00AE091F803C0BCF1480F5D
:100FD00005D14FF0010C0CFA00FCC2F810C0401C07
:100FE0000828D1D31460B1F800C0BCF1FF0F34DD84
:100FF000546800202EE000F1080C4FF0010808FAB8
:101000000CF3B1F800C00CEA03069E4221D1830024
:101010004FF00F0C0CFA03F7BC4305FA03FC4CEA43
:10102000040491F803C0BCF1280F05D100F1080CAD
:1010300008FA0CF8C2F8148091F803C0BCF1480F0C
:1010400007D100F1080C4FF0010808FA0CF8C2F8BB
:101050001080401C0828CED35460BDE8F081000009
:10106000F0B50A46002300240021002500F00046C8
:10107000B6F1004F02D11D4EF16901E01B4E7168BF
:10108000C0F3034583B200F44016B6F5401F08D103
:1010900021F07061154E766826F07066134F7E6001
:1010A00012E000F48016B6F5801F06D1032606FA7A
:1010B00005F4A14341F0706106E0460D360103FAE4
:1010C00006F6B14341F0706122B1460D360103FAD4
:1010D00006F6314300F00046B6F1004F02D1034E50
:1010E000F16101E0014E7160F0BD000000000140BF
:1010F0000246002093680B400BB1012000E0002065
:1011000070474161704701617047002141708170F3
:101110008180C180018141818181C18101824182BF
:1011200081828176018381768183C18301844162DA
:1011300001854185C162704700BFFEE708B5012106
:10114000082000F0D1FF3020ADF8000014208DF809
:10115000030003208DF8020069461148FFF7F4FEF2
:1011600030210F48FFF7CFFF40210D48FFF7CBFF9D
:101170004FF44070ADF8000014208DF803000320F8
:101180008DF8020069460648FFF7DEFE4FF4407115
:101190000348FFF7B8FF80210148FFF7B4FF08BDFF
:1011A000000C01404CF6CC4001490860704700003B
:1011B0000030004070B505460C4645F2555000F031
:1011C0001FF8284600F010F8204600F013F800F051
:1011D00003F8FFF7E7FF70BD4AF6AA20014908604F
:1011E000704700000030004001494860704700002F
:1011F0000030004001498860704700000030004026
:1012000001490860704700000030004010B50446F6
:10121000A088012807DDA088082804DC6078012860
:1012200019D1E07017E0A088082808DDA0881228EE
:1012300005DC607801280ED10220E0700BE0A08868
:10124000122808DDA088C82805DA207818B90120FE
:1012500020700320E0700648FEF7EAFF607801285E
:1012600002D10020A08020700020E07010BD00009E
:101270006800002010B5044680214648FFF738FF7B
:1012800038B9A088401CA080002060700320A070A6
:1012900003E0012060700020A0702046FFF7B6FF39
:1012A0003D484079002874D13C4890F8480009280E
:1012B00046D13A48008B002842D13848408B00285C
:1012C0003ED120213348FFF713FF38B96089401C15
:1012D00060810021E1710321217203E00121E171AC
:1012E00000212172A01DFFF791FF40212948FFF73F
:1012F000FFFE38B9208A401C20820021617303213F
:10130000A17303E0012161730021A17304F10C00BA
:10131000FFF77CFF10211F48FFF7EAFE38B9E08A8B
:10132000401CE0820021E1740321217503E00121CA
:10133000E1740021217504F11200FFF767FF28E036
:10134000164890F8480001280ED0144890F848003C
:10135000042809D0114890F84800032804D00F4809
:1013600090F84800052814D110210A48FFF7C0FE64
:1013700038B9E08A401CE0820021E1740321217524
:1013800003E00121E1740021217504F11200FFF74F
:101390003DFF10BD0008014018000020C8050020D6
:1013A00008B501210C2000F09FFEF020ADF80000F0
:1013B00048208DF8030069460148FFF7C5FD08BDC8
:1013C0000008014010B54FF480410948FFF799FE2D
:1013D0004FF400410648FFF794FE4FF400510548D2
:1013E000FFF78FFE4FF480410248FFF78AFE10BDE1
:1013F000000C01400010014010B54FF48041094835
:10140000FFF781FE4FF400410648FFF77CFE4FF4E2
:1014100000510548FFF777FE4FF480410248FFF77F
:1014200072FE10BD000C01400010014008B5012102
:101430001C2000F059FE0121084600F055FE012154
:101440001848FFF70DFE01211748FFF709FE082095
:10145000ADF8000048208DF8030003208DF802004D
:1014600069461248FFF770FD4FF44040ADF80000A8
:1014700010208DF8030003208DF8020069460B4808
:10148000FFF762FD4FF4C040ADF8000010208DF86A
:10149000030003208DF8020069460548FFF754FD5C
:1014A00008BD00000004300000023000000C0140C4
:1014B0000010014010B54FF480410248FFF721FEB3
:1014C00010BD0000000C014010B54FF480410248EF
:1014D000FFF719FE10BD0000000C014010B54FF4DD
:1014E00080410748FFF70DFE4FF400410448FFF725
:1014F00008FE4FF400510348FFF703FE10BD000043
:10150000000C01400010014010B54FF48041074825
:10151000FFF7F9FD4FF400410448FFF7F4FD4FF4E5
:1015200000510348FFF7EFFD10BD0000000C014023
:101530000010014010B5F848807A012824D1F648FF
:10154000407D401CF44948750846407D052811DD62
:1015500000204875FFF750FFEF48807D401CC0B267
:10156000ED498875022804DB002088758872FFF732
:1015700029FFE8E2E848407D022802DCFFF722FF6D
:10158000E1E2FFF739FFDEE2E348C07A012830D11B
:10159000E148407D401CE04948750846407D0528EB
:1015A00017DD002048754FF48041DC48FFF7ABFDA4
:1015B000D948807D401CC0B2D74988750328D8DB44
:1015C00000208875C8724FF48041D448FFF799FD18
:1015D000B9E2D148407D022805DC4FF48041CF4874
:1015E000FFF78FFDAFE24FF48041CC48FFF78BFD52
:1015F000A9E2C948007B012830D1C748407D401C82
:10160000C54948750846407D052817DD0020487506
:101610004FF40041C148FFF776FDBF48807D401C74
:10162000C0B2BD4988750328A3DB00208875087304
:101630004FF40041B948FFF764FD84E2B648407DAD
:10164000022805DC4FF40041B448FFF75AFD7AE266
:101650004FF40041B148FFF756FD74E2AE48407BBD
:10166000012830D1AC48407D401CAB494875084644
:10167000407D052817DD002048754FF48041A848BB
:10168000FFF741FDA448807D401CC0B2A249887587
:1016900003289DDB0020887548734FF48041A048E3
:1016A000FFF72FFD4FE29C48407D022805DC4FF4F8
:1016B00080419B48FFF725FD45E24FF48041984863
:1016C000FFF721FD3FE29448C07B012844D19248B6
:1016D000407D401C904948750846407D052821DD25
:1016E000002048754FF400418C48FFF70CFD4FF483
:1016F00080418A48FFF707FD8748807D401CC0B2C3
:1017000085498875032898DB00208875C8734FF4D5
:1017100000418248FFF7F5FC4FF480417F48FFF716
:10172000F0FC10E27C48407D02280ADC4FF40041C6
:101730007A48FFF7E6FC4FF480417848FFF7E1FC78
:1017400001E24FF400417548FFF7DDFC4FF48041A2
:101750007248FFF7D8FCF6E16F48807B012844D13E
:101760006D48407D401C6C4948750846407D052801
:1017700021DD002048754FF400416848FFF7C3FCA5
:101780004FF480416648FFF7BEFC6348807D401CF3
:10179000C0B261498875032884DB0020887588738E
:1017A0004FF400415D48FFF7ACFC4FF480415C48CA
:1017B000FFF7A7FCC7E15848407D02280ADC4FF438
:1017C00000415648FFF79DFC4FF480415448FFF715
:1017D00098FCB8E14FF400415048FFF794FC4FF4F7
:1017E00080414F48FFF78FFCADE14B48407901281D
:1017F00044D14948407D401C474948750846407DD2
:10180000052821DD002048754FF480414348FFF74B
:101810007AFC4FF480414248FFF775FC3E48807DDA
:10182000401CC0B23C498875032889DB00208875BC
:1018300048714FF480413948FFF763FC4FF4804111
:101840003748FFF75EFC7EE13348407D02280ADC22
:101850004FF480413148FFF754FC4FF48041304849
:10186000FFF74FFC6FE14FF480412C48FFF74BFC32
:101870004FF480412A48FFF746FC64E1264800798E
:1018800001285FD12448407D401C23494875084603
:10189000407D05282BDD002048754FF480411F480E
:1018A000FFF731FC4FF400511D48FFF72CFC4FF4BB
:1018B00080411B48FFF727FC1748807D401CC0B2C1
:1018C00015498875032884DB0020887508714FF45A
:1018D00080411248FFF715FC4FF400511048FFF704
:1018E00010FC4FF480410E48FFF70BFC2BE10A4837
:1018F000407D022816DC4FF480410848FFF701FCC8
:101900004FF400510648FFF7FCFB4FF480410448B8
:10191000FFF7F7FB17E100008B000020000C0140EF
:10192000001001404FF480418748FFF7ECFB4FF473
:1019300000518648FFF7E7FB4FF480418348FFF7EB
:10194000E2FB00E18248407A01282FD18048007DE7
:10195000401C7F4908750846407C012812D1084682
:10196000007D052804DD0020087500F009F9EAE093
:101970007748007D022802DC00F0ECF8E3E000F09C
:10198000FFF8E0E07248007D052805DD0020704981
:101990000875FFF7B9FDD6E06D48007D022802DC2E
:1019A000FFF79CFDCFE0FFF7AFFDCCE06848007A81
:1019B00001282FD16648C07C401C6549C874084680
:1019C000C07C05280CDD0020C8744FF400515F482E
:1019D000FFF799FB4FF480415C48FFF794FBB2E0BE
:1019E0005B48C07C02280ADC4FF400515748FFF7DF
:1019F00088FB4FF480415548FFF783FBA3E04FF489
:101A000000515248FFF77FFB4FF480414F48FFF7EA
:101A10007AFB98E04E48007801282FD14C48807C12
:101A2000401C4B4988740846407C012812D1084666
:101A3000807C052804DD0020887400F0C1F882E075
:101A40004348807C022802DC00F0B0F87BE000F024
:101A5000B7F878E03E48807C052805DD00203C4949
:101A60008874FFF731FD6EE03948807C022802DC83
:101A7000FFF720FD67E0FFF727FD64E03448807939
:101A8000012817D13248807C401C314988740846AF
:101A9000807C052804DD0020887400F091F852E075
:101AA0002B48807C022802DC00F080F84BE000F03C
:101AB00087F848E026488078012820D12448807C97
:101AC000401C234988740846807C052807DD0020D7
:101AD00088744FF400511D48FFF715FB33E01C4894
:101AE000807C022805DC4FF400511848FFF709FB01
:101AF00029E04FF400511548FFF705FB23E0144897
:101B0000407801281FD11248807C401C10498874FD
:101B10000846807C052807DD002088744FF40041CA
:101B20000948FFF7F0FA0EE00948807C022805DC3E
:101B30004FF400410448FFF7E4FA04E04FF4004199
:101B40000148FFF7E0FA10BD000C01400010014011
:101B50008B00002010B54FF400410748FFF7D1FA81
:101B60004FF400510548FFF7CCFA4FF48041034889
:101B7000FFF7C7FA10BD0000000C01400010014043
:101B800010B54FF400410748FFF7BDFA4FF400517C
:101B90000548FFF7B8FA4FF480410348FFF7B3FA5E
:101BA00010BD0000000C01400010014010B54FF4C2
:101BB00080410248FFF7A5FA10BD00000010014067
:101BC00010B54FF480410248FFF79DFA10BD0000A8
:101BD0000010014010B5082000F03AF8044604F067
:101BE000DF0444F020042146082000F06FF810BD07
:101BF0002DE9F0410F2000F02BF880460E2000F078
:101C000027F808EB0027384604F09AFF06464FF005
:101C10008B4104F097FE0546044904F0BDFF0446DD
:101C200004F052FF80B2BDE8F08100000000B44330
:101C300010B500241B2000F00BF804464FF6FF708F
:101C400000EA04241C2000F003F80446204610BDDE
:101C500070B50446002500F025F96C2000F0E0F88E
:101C600000F078F9204600F0DBF800F073F900F09E
:101C700019F96D2000F0D4F800F06CF9002000F0A4
:101C800093F8054600F03AF9284670BD70B5054650
:101C90000720FFF7DDFF044604F0CF0405F0300015
:101CA00004432146072000F011F870BD70B50546C9
:101CB0000720FFF7CDFF044604F0FC0405F0030005
:101CC00004432146072000F001F870BD70B50546B9
:101CD0000C4600F0E7F86C2000F0A2F800F03AF9AA
:101CE000284600F09DF800F035F9204600F098F8FD
:101CF00000F030F900F002F90A2004F0E9F970BDB3
:101D000010B54FF480711248FFF7FBF91048001D21
:101D1000006820F0F0000E49091D086008460068C0
:101D200040F03000086049150948FFF7EAF905203E
:101D300004F0F4F94FF480710548FFF7E4F9062048
:101D400004F0ECF94FF480710148FFF7DAF910BDA7
:101D5000000C014010B54FF480711248FFF7D1F923
:101D60001048001D006820F0F0000E49091D0860B1
:101D70000846006840F03000086049150948FFF740
:101D8000C2F9052004F0CAF94FF480710548FFF745
:101D9000BAF9062004F0C2F94FF480710148FFF748
:101DA000B0F910BD000C014070B5054600241B4879
:101DB000006820F0F000194908600846006840F00B
:101DC0008000086000261EE04FF480711348001F59
:101DD000FFF797F9052004F0A1F94FF480710F483F
:101DE000001FFFF790F96006040E4FF400710B48D6
:101DF000001FFFF77DF908B1601CC4B2052004F094
:101E00008DF9701CC6B2082EDEDB15B9FFF7A2FFF4
:101E100001E0FFF775FF204670BD0000040C014093
:101E200070B504461E48006820F0F0001C490860A8
:101E30000846006840F03000086089151848001F07
:101E4000FFF75FF9002527E0E00930B14FF400719A
:101E50001348001FFFF757F905E04FF400711048D1
:101E6000001FFFF74EF96006040E052004F056F936
:101E70004FF480710A48001FFFF745F9052004F070
:101E80004DF94FF480710648001FFFF73AF906201C
:101E900004F044F9681CC5B2082DD5DB70BD000004
:101EA000040C014010B51448006820F0F0001249FD
:101EB00008600846006840F03000086089150E4848
:101EC000001FFFF720F94FF400710B48001FFFF7C8
:101ED0001AF90A2004F022F94FF400710648001F95
:101EE000FFF70FF90A2004F019F94FF48071024846
:101EF000001FFFF706F910BD040C014010B514488F
:101F0000006820F0F000124908600846006840F0C0
:101F10003000086089150E48001FFFF7F2F84FF4F3
:101F200000710B48001FFFF7ECF80A2004F0F6F8E8
:101F30004FF480710648001FFFF7E5F84FF4007179
:101F40000348001FFFF7DFF80A2004F0E7F810BD90
:101F5000040C014010B500241A48006820F0F0007D
:101F6000184908600846006840F08000086049157C
:101F70001448001FFFF7C7F8052004F0CFF84FF40E
:101F800080711048001FFFF7BEF8062004F0C6F865
:101F900007E0601CC4B2FA2C03DDFFF7AFFF01209D
:101FA00010BD4FF400710748001FFFF7A1F800288B
:101FB000EFD14FF480710348001FFFF7A2F8002013
:101FC000EEE70000040C014000214181C1778177D8
:101FD00081768183818201848180C1810182C17186
:101FE0004182018181758181C1750183704700BF84
:101FF000FEE7704770B5002100230F22C47804B3B8
:10200000154C246804F4E064C4F5E064210AC1F1CD
:102010000403CA40447804FA03F18478144021434D
:1020200009010E4C0678A155047804F01F0501241F
:10203000AC4005786D11AD0005F1E025C5F8004113
:1020400009E0047804F01F050124AC40044D067833
:10205000761145F8264070BD0CED00E000E400E08C
:1020600080E100E001200349087148710020887078
:10207000C870704718000020704710B5034693F8E9
:102080002A4003F11400015513F82A0F401C187060
:1020900013F82A09904205DB002083F82A0001206A
:1020A00083F82D00012010BD29B1064AD2690243F0
:1020B000044BDA6104E0034AD2698243014BDA61DE
:1020C000704700000010024029B1064A126902431D
:1020D000044B1A6104E0034A12698243014B1A61FE
:1020E000704700000010024029B1064A926902437D
:1020F000044B9A6104E0034A92698243014B9A615E
:10210000704700000010024029B1064AD26802431D
:10211000044BDA6004E0034AD2688243014BDA6080
:10212000704700000010024010B5002400F04EF887
:10213000012000F0F9F82348406820F0F000214920
:1021400048600846406820F460504860084644688B
:1021500024F4E06444F4806444601B48006800F0A8
:102160003800194908600846006840F0020008601D
:102170000846006820F0100008600846006840F03B
:10218000100008600F48446824F47C1444F462147E
:102190004460012000F0CEF800BF392000F0A6F81E
:1021A0000028FAD00748446824F0030444F00204ED
:1021B000446000BF0348406800F00C000828F9D1D3
:1021C00010BD000000100240002002400F480068CF
:1021D00040F001000D490860084640680C4908407D
:1021E0000A494860084600680A49084007490860EB
:1021F0000846006820F4802008600846406820F403
:10220000FE0048604FF41F008860704700100240D5
:102210000000FFF8FFFFF6FE30B500210022002489
:1022200000232D4D6D6805F00C0121B1042905D066
:10223000082923D105E0294D056022E0274D0560DE
:102240001FE0254D6D6805F47012234D6D6805F48F
:102250008034022505EB92421CB9214D554305609F
:102260000BE01D4D6D6805F400351DB11C4D554347
:10227000056002E0194D5543056002E0174D056009
:1022800000BF00BF144D6D6805F0F0010909154D40
:102290006B5C0568DD4045600F4D6D6805F4E061DD
:1022A000090A104D6B5C4568DD4085600A4D6D681C
:1022B00005F46051C90A0B4D6B5C4568DD40C56093
:1022C000054D6D6805F44041890B074D6B5CC56891
:1022D000B5FBF3F5056130BD0010024000127A0035
:1022E00000093D00500000206000002010B50146AC
:1022F0000022002300204A11012A02D1094C236840
:1023000006E0022A02D1074C236A01E0054C636A09
:1023100001F01F02012494401C400CB1012000E098
:10232000002010BD00100240014908607047000005
:102330000000424201490866704700000000424226
:1023400010B5082000F050F8044604F0DF0444F013
:1023500020042146082000F085F810BD10B51A2091
:1023600000F042F810BD00002DE9F0410F2000F010
:102370003BF880460E2000F037F808EB002738467F
:1023800004F0DEFB06464FF08B4104F0DBFA054615
:10239000044904F001FC044604F096FB80B2BDE859
:1023A000F08100000000B44310B50024082000F0C4
:1023B0001BF804464FF6FF7000EA0424072000F0E3
:1023C00013F80446204610BD10B500241B2000F071
:1023D0000BF804464FF6FF7000EA04241C2000F0BE
:1023E00003F80446204610BD70B50446002500F0F1
:1023F0000DF96C2000F0D2F800F054F9204600F0FE
:10240000CDF800F04FF900F001F96D2000F0C6F8AA
:1024100000F048F9002000F08BF8054600F01CF9A8
:10242000284670BD70B505460720FFF7DDFF04465E
:1024300004F0CF0405F0300004432146072000F0EB
:1024400011F870BD70B505460720FFF7CDFF0446B3
:1024500004F0FC0405F0030004432146072000F0CB
:1024600001F870BD70B505460C4600F0CFF86C2041
:1024700000F094F800F016F9284600F08FF800F00C
:1024800011F9204600F08AF800F00CF900F0E4F8A9
:102490000A2003F01DFE70BD10B510211048FEF794
:1024A00030FE0F48006820F470000D4908600846AF
:1024B000006840F44010086020210948FEF721FE22
:1024C000052003F02BFE10210548FEF71CFE062018
:1024D00003F024FE10210248FEF713FE10BD000099
:1024E000000C014010B510211048FEF70AFE0F48FD
:1024F000006820F470000D4908600846006840F448
:102500004010086020210948FEF7FDFD052003F07A
:1025100005FE10210548FEF7F6FD062003F0FEFD3E
:1025200010210248FEF7EDFD10BD0000000C014037
:1025300070B5054600241848006820F4700016495C
:1025400008600846006840F400000860002618E0B3
:1025500010211148FEF7D5FD052003F0DFFD102105
:102560000D48FEF7D0FD6006040E20210A48FEF754
:10257000BFFD08B1601CC4B2052003F0CFFD701C84
:10258000C6B2082EE4DB15B9FFF7ACFF01E0FFF798
:1025900083FF204670BD0000000C014070B504466A
:1025A0001948006820F47000174908600846006860
:1025B00040F44010086010211348FEF7A2FD0025EA
:1025C0001FE0E00920B120210F48FEF79CFD03E049
:1025D00020210D48FEF795FD6006040E052003F04E
:1025E0009DFD10210848FEF78EFD052003F096FDA5
:1025F00010210548FEF785FD062003F08FFD681CBD
:10260000C5B2082DDDDB70BD000C014010B51148CE
:10261000006820F470000F4908600846006840F424
:102620004010086010210B48FEF76DFD202109487D
:10263000FEF769FD0A2003F071FD20210548FEF731
:1026400060FD0A2003F06AFD10210248FEF759FDE3
:1026500010BD0000000C014010B51148006820F4C6
:1026600070000F4908600846006840F44010086098
:1026700010210B48FEF745FD20210948FEF741FDDA
:102680000A2003F04BFD10210548FEF73CFD2021F8
:102690000348FEF738FD0A2003F040FD10BD00009E
:1026A000000C014010B500241648006820F47000AA
:1026B000144908600846006840F4000008602021C2
:1026C0001048FEF720FD052003F028FD10210D48DD
:1026D000FEF719FD062003F021FD07E0601CC4B2DF
:1026E000FA2C03DDFFF7B8FF012010BD20210548BB
:1026F000FEF7FEFC0028F1D110210248FEF701FD93
:102700000020F2E7000C014010B5034693F82E00BC
:1027100008B9002010BD93F82740581C005D0870D0
:1027200013F8270F401C187013F82709904202DB9A
:10273000002083F8270072B693F82E00401E83F81D
:102740002E0062B60120E5E738B50446002500BF3B
:1027500089E094F8282069462046FFF7D5FF002835
:102760007FD094F83600062879D2DFE800F0031312
:10277000253956699DF80000282805D194F83600BF
:10278000401C84F8360001E0002038BD002084F8A9
:10279000370065E09DF80000012807D09DF8000093
:1027A000022803D09DF80000032804D194F83600D5
:1027B000401C84F8360053E09DF8001014F8372FC1
:1027C0002078401C04F8370904F13A00815494F849
:1027D0003600401C84F836009DF8000020873FE05A
:1027E0009DF8001014F8372F2078401C04F83709A2
:1027F00004F13A008154208F9DF800104840208752
:1028000094F8371094F83A00401C814204DB94F8A5
:102810003600401C84F8360022E094F838009DF819
:102820000010884205D194F83600401C84F8360028
:1028300005E0002084F8360084F83700A5E70FE0B3
:102840009DF80000292809D1002084F8360084F87A
:1028500037003B20005D98E703E000E000E000BFA8
:1028600000BF681CC5B294F82800A8423FF771AFBA
:1028700000208AE710B5DC48FFF766FF002870D01B
:10288000D94890F83B40492C6CD014DC172C6AD006
:1028900008DCA4F11200052871D2DFE800F0219ACB
:1028A000A4AEB800182C6BD01A2C6AD01B2C69D09F
:1028B000482C64D1F7E04E2C70D008DC4A2C6ED046
:1028C0004B2C6DD04C2C6CD04D2CF2D127E14F2CE1
:1028D00068D0502C67D05E2C70D0602CE9D165E1B7
:1028E000C14890F83C0000F0010018B10620BF4933
:1028F000887168E0BC4890F83C0000F002000228B3
:1029000003D10A20B94988715DE0B74890F83C00CE
:1029100000F00400042803D10120B449887052E07B
:10292000B14890F83C0000F00800082803D10420CA
:10293000AE49887147E0AC4890F83C0000F01000C8
:10294000102803D10120A94988713CE0A64890F8DD
:102950003C0000F02000202806D10320A349887104
:1029600031E03FE1A5E05CE09F4890F83C0000F0DA
:102970004000402807D102209C49887123E02FE1C4
:1029800064E06DE06DE0984890F83C0000F0800055
:10299000802809D102209549887014E0C9E08EE0B2
:1029A000A0E0B2E0CFE0D8E08F4890F83C0000F023
:1029B000010020B10B208D49887104E0D7E0002090
:1029C0008A4988718870884890F83C008749C871A6
:1029D00007E1854890F83D1090F83C0001EB00209D
:1029E00082490881FDE0804890F83D1090F83C0055
:1029F00001EB00207D494881F3E07B4890F83D10D1
:102A000090F83C0001EB002078498881E9E07648A5
:102A100090F83D1090F83C0001EB00207349C8810C
:102A2000DFE0714890F83D1090F83C0001EB002089
:102A300000B26E4948826C4890F83F1090F83E0012
:102A400001EB002000B269498882CAE0664890F82C
:102A50003D1090F83C0001EB002064490882C0E082
:102A6000BFE0614890F83C00604988755E4890F886
:102A70003D00C8755C4890F83F1090F83E0001EBAF
:102A800000205A490883584890F8400088765648F4
:102A900090F8421090F8410001EB002053498883E0
:102AA000012088779DE0504890F83C0050494870DC
:102AB00097E04D4890F83C004D49887091E04A48B5
:102AC00090F83D1090F83C0001EB00204849088147
:102AD000454890F83F1090F83E0001EB0020444933
:102AE00048817EE0404890F83D1090F83C0001EBB2
:102AF00000203F4988803C4890F83F1090F83E0005
:102B000001EB00203A49C8806BE0374890F83D104F
:102B100090F83C0001EB00203549888261E03248A2
:102B200090F83D1090F83C0001EB00203049C8813E
:102B300057E02D4890F83D1090F83C0001EB002044
:102B40002B4988814DE0284890F83D1090F83C00D2
:102B500001EB00202649488243E0234890F83D10CD
:102B600090F83C0001EB00202149088239E01E4822
:102B700090F83C001E4988751B4890F83E1090F86C
:102B80003D0001EB00201A490883174890F83F00E8
:102B90008876154890F8411090F8400001EB00202D
:102BA0001349888301201149C8771AE00E4890F82C
:102BB0003D1090F83C0001EB00200D4908850A48C3
:102BC00090F83E1090F83D0001EB00200849488540
:102BD0000846408D098D00EB01200549C86200E0E0
:102BE00000BF00BF002010BDF00000203E06002006
:102BF0009006002010B50848FFF7A6FD50B1064822
:102C000090F83B40B02C03D101200449087000E04B
:102C100000BF00BF10BD00003E0100202D000020BD
:102C200038B50446002500BFA7E094F8282069467F
:102C30002046FFF769FD002871D094F83600072878
:102C40006ED2DFE800F0041B3345576E82009DF81A
:102C5000000090280FD10020363460702078401C8E
:102C600020709DF800106278501C6070363C04F1B2
:102C70003A00815401E0002038BD7BE09DF800005F
:102C800003280DD114F8360F401C20709DF8001059
:102C90006278501C6070363C04F13A00815404E0C4
:102CA000002084F8360084F8370063E09DF80000C7
:102CB000A0280CD114F8360F401C20709DF800108D
:102CC0006278501C6070363C04F13A00815451E047
:102CD0009DF8000007280CD114F8360F401C207016
:102CE0009DF800106278501C6070363C04F13A0088
:102CF00081543FE09DF8001014F8372F2078401CD5
:102D000004F8370904F13A00815494F837000B288D
:102D100004DB94F83600401C84F836002AE02AE0F0
:102D200027E094F8371004F13A00FDF761FF9DF8B1
:102D30000010B1EB102F05D194F83600401C84F838
:102D4000360001E0002097E714E094F8371004F112
:102D50003A00FDF74DFFC0B29DF80010884207D140
:102D6000002084F8360084F837003C20005D83E7BB
:102D700000E000BF00BF681CC5B294F82800A8425C
:102D80003FF753AF002077E770B504462046FFF7C2
:102D900047FF20B33C20055D022012498870A02D1A
:102DA0001BD13F20015D3E20005D01EB00200D495D
:102DB00008824120015D4020005D01EB00200949AF
:102DC000C8824320015D4220005D01EB00200549DF
:102DD00088824420005D488200E000BF00BF0020E0
:102DE00070BD0000C006002070B504462046FFF705
:102DF00017FF20B33C20055D02201249C870A02DAA
:102E00001BD13F20015D3E20005D01EB00200D49FC
:102E100048844120015D4020005D01EB002009490C
:102E200008854320015D4220005D01EB002005493B
:102E3000C8844420005D888400E000BF00BF0020FB
:102E400070BD0000C006002010B5DC48FFF77CFC18
:102E5000002870D0D94890F83B40492C6CD014DC45
:102E6000172C6AD008DCA4F11200052871D2DFE823
:102E700000F0219AA4AEB800182C6BD01A2C6AD09E
:102E80001B2C69D0482C64D1F7E04E2C70D008DCA4
:102E90004A2C6ED04B2C6DD04C2C6CD04D2CF2D1DA
:102EA00027E14F2C68D0502C67D05E2C70D0602C5E
:102EB000E9D165E1C14890F83C0000F0010018B18B
:102EC0000620BF49887168E0BC4890F83C0000F0DB
:102ED0000200022803D10A20B94988715DE0B74891
:102EE00090F83C0000F00400042803D10120B4490C
:102EF000887052E0B14890F83C0000F008000828C3
:102F000003D10420AE49887147E0AC4890F83C00FA
:102F100000F01000102803D10120A94988713CE07D
:102F2000A64890F83C0000F02000202806D103209D
:102F3000A349887131E03FE1A5E05CE09F4890F84B
:102F40003C0000F04000402807D102209C498871D5
:102F500023E02FE164E06DE06DE0984890F83C00DC
:102F600000F08000802809D102209549887014E083
:102F7000C9E08EE0A0E0B2E0CFE0D8E08F4890F862
:102F80003C0000F0010020B10B208D49887104E065
:102F9000D7E000208A4988718870884890F83C0002
:102FA0008749C87107E1854890F83D1090F83C00CA
:102FB00001EB002082490881FDE0804890F83D1037
:102FC00090F83C0001EB00207D494881F3E07B480C
:102FD00090F83D1090F83C0001EB00207849888182
:102FE000E9E0764890F83D1090F83C0001EB0020B5
:102FF0007349C881DFE0714890F83D1090F83C00BB
:1030000001EB002000B26E4948826C4890F83F10F6
:1030100090F83E0001EB002000B269498882CAE0C6
:10302000664890F83D1090F83C0001EB00206449A0
:103030000882C0E0BFE0614890F83C0060498875B4
:103040005E4890F83D00C8755C4890F83F1090F8D5
:103050003E0001EB00205A490883584890F8400090
:103060008876564890F8421090F8410001EB002015
:1030700053498883012088779DE0504890F83C00B0
:103080005049487097E04D4890F83C004D49887091
:1030900091E04A4890F83D1090F83C0001EB002088
:1030A00048490881454890F83F1090F83E0001EBF0
:1030B0000020444948817EE0404890F83D1090F857
:1030C0003C0001EB00203F4988803C4890F83F10CD
:1030D00090F83E0001EB00203A49C8806BE0374889
:1030E00090F83D1090F83C0001EB002035498882B3
:1030F00061E0324890F83D1090F83C0001EB002070
:103100003049C88157E02D4890F83D1090F83C00B8
:1031100001EB00202B4988814DE0284890F83D10B4
:1031200090F83C0001EB00202649488243E0234808
:1031300090F83D1090F83C0001EB002021490882F6
:1031400039E01E4890F83C001E4988751B4890F8ED
:103150003E1090F83D0001EB00201A490883174803
:1031600090F83F008876154890F8411090F840009C
:1031700001EB00201349888301201149C8771AE028
:103180000E4890F83D1090F83C0001EB00200D49EE
:1031900008850A4890F83E1090F83D0001EB0020A9
:1031A000084948850846408D098D00EB01200549F6
:1031B000C86200E000BF00BF002010BDA2000020D8
:1031C0001C0600206006002038B50446002500BF1C
:1031D000C6E094F8282069462046FFF795FA0028B3
:1031E0007CD094F83600082879D2DFE800F0041883
:1031F0002E5A798C9FA99DF800003A2807D194F89F
:103200003600401C84F836000020208703E00020B0
:1032100084F8360038BD002084F837009DE09DF822
:10322000000016280AD194F83600401C84F83600B5
:10323000208F9DF800100844208705E0002084F8C6
:10324000360084F83700208787E09DF800000928C1
:103250000AD09DF800000E2806D09DF8000018B195
:103260009DF800002E2815D19DF8001014F8372F76
:103270002078401C04F8370904F13A00815494F88E
:103280003600401C84F83600208F9DF8001008445A
:10329000208705E0002084F8360084F83700208776
:1032A0005BE09DF8001014F8372F2078401C04F8DC
:1032B000370904F13A008154208F9DF8001008442A
:1032C000208794F837103B20005D401C814204DDCC
:1032D00094F83600401C84F836003EE03EE03BE0C7
:1032E00094F838009DF80010884205D194F8360013
:1032F000401C84F8360005E0002084F8360084F88D
:10330000370087E729E0208F9DF80010B1EB102FE0
:1033100005D194F83600401C84F8360005E0002002
:1033200084F8360084F8370074E716E09DF8000052
:103330000D2804D194F83600401C84F836000CE0C7
:103340009DF800000A2806D1002084F8360084F891
:10335000370001205EE700E000BF00BF681CC5B277
:1033600094F82800A8423FF734AF002052E700004D
:1033700070B504462046FFF727FF40B394F83A5053
:10338000012014498870DDB1092D04D00E2D0BD019
:103390002E2D1AD10DE03E20015D3D20005D01EB98
:1033A00000200C49088111E03C20005D094948815A
:1033B0000CE03E20005D00F004000649487105E085
:1033C0003C20005D0349887100E000BF00BF002081
:1033D00070BD0000C006002070B504462046FFF70F
:1033E000F3FE40B394F83A5001201449C870DDB19F
:1033F000092D04D00E2D0BD02E2D1AD10DE03E201C
:10340000015D3D20005D01EB00200C49488311E087
:103410003C20005D094988830CE03E20005D00F0FF
:1034200004000649087605E03C20005D0349487623
:1034300000E000BF00BF002070BD0000C0060020FB
:1034400030B503460C461546002207E0184600F04A
:1034500008F824F812009B1C501C82B2AA42F5DB2B
:1034600030BD0146088870472DE9F04105460E46FB
:103470001746FDF741FC1FE0A5F10061890A4FF0F6
:10348000006202EB8120FDF7CDFB002406E036F858
:1034900014000C4921F81400601C84B2BC42F6DB15
:1034A000A5F10061890A4FF0006202EB81203A46E3
:1034B000044900F009F800E0DEE700BFFDF7F2FB89
:1034C000BDE8F0818C0100202DE9F04105460E4653
:1034D0001746002407E036F814102846FDF7ECFBE9
:1034E000AD1C601C84B2BC42F5DBBDE8F0817047C6
:1034F0002DE9FF470646884691460024002500270F
:1035000028222146641C0DF801202146641C0DF878
:1035100001902146641C0DF80180742E7ED00CDCD5
:10352000A6F166000E287AD2DFE800F01179263B7A
:1035300079797979797950657D84A6F1A100072898
:10354000F1D2DFE800F085F0EEEDB8ECEB000122FF
:103550002046611CCCB20DF80020FB48027F2046BB
:10356000611CCCB20DF80020F748027D2046611C9A
:10357000CCB20DF80020DBE201222046611CCCB267
:103580000DF80020F048827F2046611CCCB20DF877
:103590000020ED48827D2046611CCCB20DF8002051
:1035A000C6E201222046611CCCB20DF80020E6489C
:1035B000027F2046611CCCB20DF80020E248027D5B
:1035C0002046611CCCB20DF80020B1E20122204659
:1035D000611CCCB20DF80020DB48827F2046611CC4
:1035E000CCB20DF80020D848827D2046611CCCB2B8
:1035F0000DF800209CE201222046611CCCB20DF89F
:103600000020D148827F2046611CCCB20DF80020FA
:10361000CD48827D2046611CCCB201E011E086E2FB
:103620000DF8002084E203222046611CCCB20DF884
:1036300000207DE238222046611CCCB20DF800202B
:1036400076E23B222046611CCCB20DF800206FE2EE
:10365000A1222046611CCCB20DF80020BB48C279E3
:103660002046611CCCB20DF80020B8480089021237
:103670002046611CCCB20DF80020B448027A2046E6
:10368000611CCCB20DF80020B0488089021220469F
:10369000611CCCB20DF80020AC48027B2046611CB6
:1036A000CCB20DF80020A94882782046611CCCB22B
:1036B0000DF800203CE2A5222046611CCCB20DF89A
:1036C0000020A348C2792046611CCCB20DF800202E
:1036D0009F48008902122046611CCCB20DF80020E0
:1036E0009B48027A2046611CCCB20DF80020984815
:1036F000808902122046611CCCB20DF8002094484B
:10370000027B2046611CCCB20DF8002090488278E4
:103710002046611CCCB20DF8002009E220E134E023
:10372000CCE164E0FFE7A2222046611CCCB20DF898
:103730000020884842782046611CCCB20DF8002059
:103740008448C089020A2046611CCCB20DF80020D2
:103750008048827B2046611CCCB20DF800207D4859
:103760008089020A2046611CCCB20DF800207948FD
:10377000027B2046611CCCB20DF8002000222046BE
:10378000611CCCB20DF80020D2E1A6222046611CBB
:10379000CCB20DF80020704842782046611CCCB2B3
:1037A0000DF800206C48C089020A2046611CCCB28A
:1037B0000DF800206848827B2046611CCCB20DF8D1
:1037C000002065488089020A2046611CCCB20DF8B1
:1037D00000206148027B2046611CCCB20DF800201D
:1037E00000222046611CCCB20DF80020A0E1A322EB
:1037F0002046611CCCB20DF8002058488078012882
:103800002BD1564882782046611CCCB20DF800209E
:1038100052480089020A2046611CCCB20DF80020F3
:103820004E48027A2046611CCCB20DF800204B486D
:103830004089020A2046611CCCB20DF8002047489E
:10384000827A2046611CCCB20DF80020002220466E
:10385000611CCCB20DF8002074E04048807802284A
:103860002BD13E4882782046611CCCB20DF8002056
:103870003A48008A020A2046611CCCB20DF80020AA
:103880003648027C2046611CCCB20DF8002033483B
:10389000408A020A2046611CCCB20DF800202F4855
:1038A000827C2046611CCCB20DF80020002220460C
:1038B000611CCCB20DF8002044E028488078032831
:1038C00021D1264882782046611CCCB20DF8002018
:1038D00000222046611CCCB20DF800202046611C5D
:1038E000CCB20DF800202046611CCCB20DF80020AF
:1038F0002046611CCCB20DF800202046611CCCB2E1
:103900000DF800201EE000222046611CCCB20DF80C
:1039100000202046611CCCB20DF800202046611C1E
:10392000CCB20DF800202046611CCCB20DF800206E
:103930002046611CCCB20DF800202046611CCCB2A0
:103940000DF80020F4E00000C80500203E0600202D
:103950001C0600206006002090060020C006002003
:10396000A7222046611CCCB20DF80020C948C078BF
:1039700001282BD1C748C2782046611CCCB20DF873
:103980000020C448408B020A2046611CCCB20DF8CE
:103990000020C048827E2046611CCCB20DF8002079
:1039A000BC48808B020A2046611CCCB20DF8002076
:1039B000B848027F2046611CCCB20DF800200022DE
:1039C0002046611CCCB20DF8002076E0B148C078EA
:1039D00002282DD1AF48C2782046611CCCB20DF828
:1039E0000020AC48408C020A2046611CCCB20DF885
:1039F0000020A84890F822202046611CCCB20DF887
:103A00000020A448808C020A2046611CCCB20DF82C
:103A10000020A04890F824202046611CCCB20DF86C
:103A2000002000222046611CCCB20DF8002044E0AA
:103A30009848C078032821D19648C2782046611C56
:103A4000CCB20DF8002000222046611CCCB20DF84B
:103A500000202046611CCCB20DF800202046611CDD
:103A6000CCB20DF800202046611CCCB20DF800202D
:103A70002046611CCCB20DF800201EE0002220463A
:103A8000611CCCB20DF800202046611CCCB20DF8B0
:103A900000202046611CCCB20DF800202046611C9D
:103AA000CCB20DF800202046611CCCB20DF80020ED
:103AB0002046611CCCB20DF8002039E0A42220463B
:103AC000611CCCB20DF800207348007B7249C979A3
:103AD00040EA41007049C97840EA8100C2B22046FC
:103AE000611CCCB20DF800206C4882782046611C25
:103AF000CCB20DF800206A4842782046611CCCB256
:103B00000DF80020674882782046611CCCB20DF881
:103B10000020654882782046611CCCB20DF8002058
:103B200000222046611CCCB20DF8002000E000BF4E
:103B300000BF0227002504E01DF807004540781C5F
:103B4000C7B2A742F8DBEAB22046611CCCB20DF83E
:103B5000002029222046611CCCB20DF8002000254F
:103B600093E01DF805A0742E55D00CDCA6F166007C
:103B70000E2873D2DFE800F01185171D8585858535
:103B8000858528333944A6F1A100072879D2DFE8DA
:103B900000F04D5359725F666C000822514643484D
:103BA000FEF76BFA6EE0082251464148FEF765FACF
:103BB00068E0082251463D48FEF75FFA0822514668
:103BC0003B48FEF75AFA5DE0082251463748FEF7B7
:103BD00054FA082251463648FEF74FFA52E00822BE
:103BE00051463448FEF749FA4CE0062251462F4828
:103BF000FEF743FA062251462D48FEF73EFA41E011
:103C0000062251462948FEF738FA0622514628482E
:103C1000FEF733FA36E0062251462448FEF72DFA25
:103C2000062251462248FEF728FA2BE00C22514684
:103C30002048FEF722FA25E00C2251461D48FEF7E7
:103C40001CFA1FE00C2251461A48FEF716FA19E03A
:103C50000C2251461748FEF710FA13E011E00C222F
:103C600051461448FEF709FA0CE00C22514611485F
:103C7000FEF703FA06E00C2251460E48FEF7FDF966
:103C800000E000BF00BF681CC5B2A542FFF669AFE7
:103C9000BDE8FF87C0060020C805002018000020EE
:103CA000680000206006002090060020A20000208E
:103CB000F00000203E01002010B500F001F810BD1A
:103CC0000CB50020019000903348006840F480302B
:103CD0003149086000BF3048006800F400300090AF
:103CE0000198401C0190009818B90198B0F5A06F98
:103CF000F1D12948006800F4003010B10120009093
:103D000001E0002000900098012843D1234800687A
:103D100040F01000214908600846006820F00300C8
:103D200008600846006840F0020008601A484068D1
:103D3000194948600846406848600846406840F4B1
:103D4000806048600846406820F47C10486008465F
:103D5000406840F4E81048600846006840F0807011
:103D6000086000BF0C48006800F000700028F9D01F
:103D70000948406820F00300074948600846406849
:103D800040F00200486000BF0348406800F00C00AB
:103D90000828F9D10CBD00000010024000200240AC
:103DA000042808D14FF0E021096941F004014FF0E7
:103DB000E022116107E04FF0E021096921F00401E0
:103DC0004FF0E022116170477047000010B51348B2
:103DD000006840F001001149086008464068104939
:103DE00008400E494860084600680E4908400B49E3
:103DF00008600846006820F4802008600846406893
:103E000020F4FE0048604FF41F008860FFF754FF65
:103E10004FF000600449086010BD0000001002402F
:103E20000000FFF8FFFFF6FE08ED00E0416A3C29C4
:103E30004EDB416AB1F5967F4ADAD0E90812914229
:103E40001FDDD0E9092191421BDAD0E90812891A55
:103E5000372913DBD0E90812891A41290EDCD0E991
:103E60000912891A282909DCD0E90912891A1E29A0
:103E700004DB012181700021417097E10121417033
:103E80007047D0E9081291421FDAD0E90921914226
:103E90001BDDD0E90821891A372913DBD0E9082175
:103EA000891A41290EDCD0E90921891A282909DC5F
:103EB000D0E90921891A1E2904DB01218170002122
:103EC000417073E101214170DAE701214170D7E7C8
:103ED000416A232955DB416A3C2952DAD0E90812AC
:103EE00091421FDDD0E9092191421BDAD0E9081285
:103EF000891A372913DBD0E90812891A41290EDC07
:103F0000D0E90912891A282909DCD0E90912891A8D
:103F10001E2904DB012181700021417046E101214D
:103F20004170ADE7D0E90812914227DDD0E90921BF
:103F3000914223DD826A016A91421FDD016AC1F567
:103F4000B471426A1144372915DB016AC1F5B471B5
:103F5000426A114441290EDCD0E90921891A282935
:103F600009DCD0E90921891A1E2904DB01218170AD
:103F7000002141701AE10121417081E70121417066
:103F80007EE7416AB1F5967F52DB416AB1F5A27FC7
:103F90004EDCD0E90812914223DAD0E9092191429E
:103FA0001FDA416AC1F5B471026A1144372915DB81
:103FB000416AC1F5B471026A114441290EDCD0E9AD
:103FC0000912891A282909DCD0E90912891A1E293F
:103FD00004DB0121817000214170E7E00121417083
:103FE0004EE7D0E9081291421FDAD0E90921914247
:103FF0001BDDD0E90821891A372913DBD0E9082114
:10400000891A41290EDCD0E90921891A282909DCFD
:10401000D0E90921891A1E2904DB012181700021C0
:104020004170C3E0012141702AE70121417027E777
:10403000416AB1F5B47F5EDA416AB1F5A27F5ADD1B
:10404000D0E90812914227DAD0E90921914223DA16
:10405000026A816A91421FDD416AC1F5B471026A48
:104060001144372915DB416AC1F5B471026A114464
:1040700041290EDCD0E90912891A282909DCD0E986
:104080000912891A1E2904DB012181700021417067
:104090008CE001214170F3E6D0E90812914227DA61
:1040A000D0E90921914223DA026A816A91421FDA3A
:1040B000D0E90821891A372917DBD0E90821891AA4
:1040C000412912DC816A01F5B471426A891A2829F2
:1040D0000BDC816A01F5B471426A891A1E2904DB7E
:1040E000012181700021417060E001214170C7E62B
:1040F00001214170C4E6D0E90812914227DDD0E9E0
:104100000921914223DD026A816A91421FDDD0E9D3
:104110000812891A372917DBD0E90812891A4129B0
:1041200012DC416A01F5B471826A891A28290BDC14
:10413000416A01F5B471826A891A1E2904DB0121E2
:1041400081700021417031E00121417098E6D0E991
:104150000812914227DDD0E90921914223DD826ACC
:10416000016A91421FDD416A01F5B471026A891A40
:10417000372915DB416A01F5B471026A891A4129B0
:104180000EDCD0E90921891A282909DCD0E90921A6
:10419000891A1E2904DB012181700021417005E08C
:1041A000012141706CE60121417069E6016B3C29F7
:1041B0004EDB016BB1F5967F4ADAD0E90B129142E2
:1041C0001FDDD0E90C2191421BDAD0E90B12891ACC
:1041D000372913DBD0E90B12891A41290EDCD0E90B
:1041E0000C12891A282909DCD0E90C12891A1E2917
:1041F00004DB012181710021417197E101214171AD
:104200003EE6D0E90B1291421FDAD0E90C2191422F
:104210001BDDD0E90B21891A372913DBD0E90B21EB
:10422000891A41290EDCD0E90C21891A282909DCD8
:10423000D0E90C21891A1E2904DB0121817100219A
:10424000417173E1012141711AE60121417117E6C3
:10425000016B232955DB016B3C2952DAD0E90B12A3
:1042600091421FDDD0E90C2191421BDAD0E90B12FB
:10427000891A372913DBD0E90B12891A41290EDC80
:10428000D0E90C12891A282909DCD0E90C12891A04
:104290001E2904DB012181710021417146E10121C8
:1042A0004171EDE5D0E90B12914227DDD0E90C21F7
:1042B000914223DD426BC16A91421FDDC16AC1F5A3
:1042C000B471026B1144372915DBC16AC1F5B471B1
:1042D000026B114441290EDCD0E90C21891A2829EE
:1042E00009DCD0E90C21891A1E2904DB0121817126
:1042F000002141711AE101214171C1E501214171A2
:10430000BEE5016BB1F5967F52DB016BB1F5A27F83
:104310004EDCD0E90B12914223DAD0E90C21914214
:104320001FDA016BC1F5B471C26A1144372915DB7C
:10433000016BC1F5B471C26A114441290EDCD0E9A8
:104340000C12891A282909DCD0E90C12891A1E29B5
:1043500004DB0121817100214171E7E001214171FC
:104360008EE5D0E90B1291421FDAD0E90C2191427F
:104370001BDDD0E90B21891A372913DBD0E90B218A
:10438000891A41290EDCD0E90C21891A282909DC77
:10439000D0E90C21891A1E2904DB01218171002139
:1043A0004171C3E0012141716AE50121417167E575
:1043B000016BB1F5B47F5EDA016BB1F5A27F5ADD16
:1043C000D0E90B12914227DAD0E90C21914223DA8D
:1043D000C26A416B91421FDD016BC1F5B471C26AC3
:1043E0001144372915DB016BC1F5B471C26A114460
:1043F00041290EDCD0E90C12891A282909DCD0E900
:104400000C12891A1E2904DB0121817100214171DE
:104410008CE00121417133E5D0E90B12914227DA9A
:10442000D0E90C21914223DAC26A416B91421FDA32
:10443000D0E90B21891A372917DBD0E90B21891A1A
:10444000412912DC416B01F5B471026B891A2829EC
:104450000BDC416B01F5B471026B891A1E2904DB78
:10446000012181710021417160E00121417107E565
:104470000121417104E5D0E90B12914227DDD0E919
:104480000C21914223DDC26A416B91421FDDD0E9CC
:104490000B12891A372917DBD0E90B12891A412927
:1044A00012DC016B01F5B471426B891A28290BDC0F
:1044B000016B01F5B471426B891A1E2904DB0121DD
:1044C00081710021417131E001214171D8E4D0E9CD
:1044D0000B12914227DDD0E90C21914223DD426B82
:1044E000C16A91421FDD016B01F5B471C26A891A7C
:1044F000372915DB016B01F5B471C26A891A4129AC
:104500000EDCD0E90C21891A282909DCD0E90C211C
:10451000891A1E2904DB012181710021417105E006
:1045200001214171ACE401214171A9E400BFA7E47C
:1045300000217F2202720022027042708270C270DB
:10454000027142718271C27142810273427382733D
:10455000C2730274427482748282C2820283428372
:104560008283C283026242628262C26202634263E7
:104570008263C2630264426400BF05E0002300F16D
:10458000490253544A1CD1B20829F7DB7047000096
:1045900000B589B0012140F60C00FDF7A5FD3648B5
:1045A00000F006F94FF48070ADF8200018208DF867
:1045B000230003208DF8220008A93048FCF7C4FC32
:1045C00005A800F0B5FA40F2CF70ADF81800002051
:1045D000ADF814002020ADF816000020ADF81A0048
:1045E0008DF81C0005A9244800F050FA202022492B
:1045F000091D088001A800F03EFA6020ADF8040013
:104600000120ADF806000020ADF808004FF46170FD
:10461000ADF80A000020ADF80E0001A9164800F020
:10462000D5F90821144800F01DFA19208DF8000072
:1046300001208DF8010000208DF8020001208DF886
:1046400003006846FDF7D6FC012211460A4800F037
:10465000B4F90121084800F07DF80021064800F077
:1046600097F80121044800F081F80121024800F088
:1046700083F809B000BD0000002C01400008014093
:1046800010B50121284800F087F900284BD00121FE
:10469000254800F06EF825480088401C2349088012
:1046A0000846008810280AD10120214908702148B5
:1046B0000078401C1F49087000201C4908801D48D4
:1046C00000780A280AD101201B4908701B4800788D
:1046D000401C1A49087000201649087017480078D5
:1046E0000A2805D1012016490870002013490870D6
:1046F0000D483030008840B90B48243000886428C9
:1047000003DD01200849303108800E4800680E4959
:1047100008800C48001D00680C49088009480830D2
:1047200000680B49088010BD002C014026000020C5
:104730002A000020280000202B0000202900002053
:104740002C0000203C2401402000002022000020FA
:104750002400002021B1028842F08002028004E09F
:1047600002884FF67F731A4002807047CA43028264
:104770007047CA430282704721B1028842F00102A9
:10478000028004E002884FF6FE731A4002807047F0
:1047900031B1B0F8442042F40042A0F8442005E0D2
:1047A000B0F84420C2F30E02A0F844207047000085
:1047B00010B504466848844208D10121C014FDF7B1
:1047C000A3FC0021E014FDF79FFCC4E0B4F1804F8E
:1047D00008D101210846FDF777FC00210120FDF7F3
:1047E00073FCB8E05D48844208D101210220FDF746
:1047F0006BFC00210220FDF767FCACE058488442C6
:1048000008D101210420FDF75FFC00210420FDF701
:104810005BFCA0E05348844208D101210820FDF749
:1048200053FC00210820FDF74FFC94E04E488442E1
:1048300008D101211020FDF747FC00211020FDF7D1
:1048400043FC88E04948844208D101212020FDF73B
:104850003BFC00212020FDF737FC7CE044488442EB
:1048600008D101214014FDF74FFC00216014FDF731
:104870004BFC70E03F48844209D10121C804FDF798
:1048800043FC00214FF40020FDF73EFC63E03A4872
:10489000844209D101210805FDF736FC00214FF4BF
:1048A0008010FDF731FC56E03448844209D10121E3
:1048B0004805FDF729FC00214FF40010FDF724FC0A
:1048C00049E02F48844208D101214020FDF7FCFB3C
:1048D00000214020FDF7F8FB3DE02A48844208D142
:1048E00001218020FDF7F0FB00218020FDF7ECFB8B
:1048F00031E02548844208D101218015FDF7E4FB11
:104900000021A015FDF7E0FB25E02048844209D1F5
:1049100001210804FDF7F8FB00214FF48030FDF77A
:10492000F3FB18E01A48844209D101214804FDF73D
:10493000EBFB00214FF40030FDF7E6FB0BE01548E0
:10494000844208D101218804FDF7DEFB00214FF4E9
:104950008020FDF7D9FB10BD002C01400004004071
:1049600000080040000C004000100040001400400F
:1049700000340140004C014000500140005401400F
:1049800000180040001C0040002000400040014092
:10499000004401400048014030B502460020002399
:1049A0000024158A05EA0103958905EA010413B17B
:1049B0000CB1012000E0002030BD1AB183890B4307
:1049C000838102E083898B438381704770B5002423
:1049D00000220023058C4FF6FE7635400584028CBC
:1049E0008388048B4FF68F752C40B51E2C400D88A4
:1049F0002C43751E2A400D892A434D882A43144DA5
:104A0000A8420BD0134DA84208D0134DA84205D0A0
:104A1000124DA84202D0124DA84213D14FF6F7759D
:104A20002A404D892A434FF6FB752A408D882A4338
:104A30004FF6FF652B404FF6FF552B408D892B43DA
:104A4000CD892B4383800483CD888586028470BD05
:104A5000002C01400034014000400140004401406E
:104A6000004801400A460021018B4FF6F7731940B8
:104A70001143018370470021018041808180C18002
:104A8000018141818181C18170470000002202883B
:104A90001D4B98420ED01D4B98420BD0B0F1804F69
:104AA00008D01B4B984205D01A4B984202D01A4BA3
:104AB000984204D14FF68F731A404B881A43174B14
:104AC000984207D0164B984204D04FF6FF431A4045
:104AD000CB881A4302808B8883850B8803850A4B19
:104AE00098420BD0094B984208D00E4B984205D003
:104AF0000D4B984202D00D4B984201D10B7A0386A0
:104B00000123838270470000002C014000340140E3
:104B10000004004000080040000C0040001000406D
:104B200000140040004001400044014000480140A2
:104B30004FF6FF71818000210180C18041800172A8
:104B40007047416A3C2977DB416AB1F5967F73DA99
:104B5000D0E90812914238DDD0E90921914234DAD6
:104B6000416AB1F5907F09DD416AB1F5967F05DABA
:104B7000816B0A2902DA40F267118163426A816B14
:104B8000914213DB416A4131826B8A420EDC012182
:104B90008183426A816B891AC1EBC111D0E9082374
:104BA000D21A91FBF2F109B2018380E200218183E4
:104BB000826B416A891AC1EBC111D0E90923D21A6B
:104BC00091FBF2F109B2018371E2D0E9081291423E
:104BD000EBDAD0E909219142E7DD416A3C2908DBA3
:104BE000416A462905DC816BB1F5AF7F01DB00210D
:104BF0008163426A816B91420EDC01218183826B69
:104C0000416A891AC1EBC111D0E90832D21A91FB6D
:104C1000F2F109B201834AE200218183426A816B89
:104C2000891AC1EBC111D0E90932D21A91FBF2F114
:104C300009B201833BE2FFE7416A232976DB416A3F
:104C40003C2973DAD0E90812914225DDD0E9092127
:104C5000914221DA426A816B91420EDB012181830C
:104C6000426A816B891AC1EBC111D0E90823D21ABB
:104C700091FBF2F109B2018319E200218183826B79
:104C8000416A891AC1EBC111D0E90923D21A91FBFB
:104C9000F2F109B201830AE2D0E90812914284DDFF
:104CA000D0E9092191428FDD826A016A91428BDD50
:104CB000816BB1F5A77F03DA426A816B914225DCF3
:104CC00001218183426A816B91420EDC826B416AD1
:104CD000891AC1EBC111026AC2F5B472436A1A445F
:104CE00091FBF2F109B20183E1E1816BC1F5B4718D
:104CF000426A1144C1EBC111026AC2F5B472436A3F
:104D00001A4491FBF2F109B20183D0E100218183C1
:104D1000426A816B891AC1EBC111D0E90932D21AFA
:104D200091FBF2F109B20183C1E1FFE7416AB1F5FC
:104D3000967F77DB416AB1F5A27F73DCD0E9081278
:104D400091423EDAD0E9092191423ADA816B1E297B
:104D500003DD426A816B914224DB01218183426A37
:104D6000816B91420DDB426A816B891AC1EBC111E3
:104D7000C2F5B472036A1A4491FBF2F109B20183DD
:104D800095E1416AC1F5B471826B1144C1EBC11167
:104D9000426AC2F5B472036A1A4491FBF2F109B295
:104DA000018384E100218183826B416A891AC1EB0E
:104DB000C111D0E90923D21A91FBF2F109B20183A2
:104DC00075E1D0E9081291428EDAD0E909219142C9
:104DD0008ADD816B0A2902DA40F267118163426A37
:104DE000816B91420EDC01218183826B416A891AB9
:104DF000C1EBC111D0E90832D21A91FBF2F109B22C
:104E0000018354E100218183426A816B891AC1EBDD
:104E1000C111D0E90932D21A91FBF2F109B2018332
:104E200045E1FFE7416AB1F5B47F7EDA416AB1F549
:104E3000A27F7ADDD0E90812914242DAD0E9092155
:104E400091423EDA026A816A91423ADD816B4129E0
:104E500003DD426A816B914224DB01218183426A36
:104E6000816B91420DDB426A816B891AC1EBC111E2
:104E7000C2F5B472036A1A4491FBF2F109B20183DC
:104E800015E1416AC1F5B471826B1144C1EBC111E6
:104E9000426AC2F5B472036A1A4491FBF2F109B294
:104EA000018304E100218183826B416A891AC1EB8D
:104EB000C111D0E90923D21A91FBF2F109B20183A1
:104EC000F5E0D0E9081291429BDAD0E9092191423C
:104ED00097DA026A816A914293DA426A816B91425F
:104EE00013DC416A4139826B8A420EDB01218183E6
:104EF000826B416A891AC1EBC111D0E90832D21A1A
:104F000091FBF2F109B20183D1E0426A816B9142D7
:104F100002DC816B282915DC00218183426A816BC8
:104F2000914210DB426A816B00E01DE0891AC1EBFF
:104F3000C112816A01F5B471436AC91A92FBF1F199
:104F400009B20183B3E0816B01F5B471426A891A39
:104F5000C1EBC112816A01F5B471436AC91A92FBAF
:104F6000F1F109B20183A2E0D0E9081291424DDDCE
:104F7000D0E90921914249DD026A816A914245DD09
:104F8000426A816B914213DB416A3C31826B8A42F7
:104F90000EDC01218183426A816B891AC1EBC11148
:104FA000D0E90823D21A91FBF2F109B201837EE025
:104FB000426A816B914203DB816BB1F5A27F76DDA2
:104FC00000218183426A816B91420EDA826B416AD1
:104FD000891AC1EBC111826AC2F5B472436A1A44DC
:104FE00091FBF2F109B2018361E0816BC1F5B4710B
:104FF000426A1144C1EBC111826AC2F5B472436ABC
:105000001A4491FBF2F109B2018350E0D0E9081291
:1050100091424CDDD0E90921914248DD826A016A62
:10502000914244DD426A816B914203DD816BB1F5AF
:10503000967F25DB01218183426A816B91420EDAE2
:10504000826B416A891AC1EBC111026AC2F5B4725E
:10505000436A1A4491FBF2F109B2018327E0816BA4
:10506000C1F5B471426A1144C1EBC111026AC2F5C3
:10507000B472436A1A4491FBF2F109B2018316E05B
:10508000426A816B914212DD416A2331826B8A420E
:105090000DDC00218183426A816B891AC1EBC11149
:1050A000D0E90932D21A91FBF2F109B20183B0F9C9
:1050B00018107D2902DD7F21018305E0B0F9181069
:1050C000052901DA00210183016B3C2977DB016BA3
:1050D000B1F5967F73DAD0E90B12914238DDD0E951
:1050E0000C21914234DA016BB1F5907F09DD016B3F
:1050F000B1F5967F05DAC16B0A2902DA40F2671131
:10510000C163026BC16B914213DB016B4131C26B16
:105110008A420EDC0121C183026BC16B891AC1EB8B
:10512000C111D0E90B23D21A91FBF2F109B24183EC
:105130007FE20021C183C26B016B891AC1EBC111EF
:10514000D0E90C23D21A91FBF2F109B2418370E24B
:10515000D0E90B129142EBDAD0E90C219142E7DD64
:10516000016B3C2908DB016B462905DCC16BB1F5FD
:10517000AF7F01DB0021C163026BC16B91420EDC8A
:105180000121C183C26B016B891AC1EBC111D0E946
:105190000B32D21A91FBF2F109B2418349E20021AC
:1051A000C183026BC16B891AC1EBC111D0E90C320A
:1051B000D21A91FBF2F109B241833AE2FFE7016BA7
:1051C000232976DB016B3C2973DAD0E90B1291427B
:1051D00025DDD0E90C21914221DA026BC16B9142AD
:1051E0000EDB0121C183026BC16B891AC1EBC111B6
:1051F000D0E90B23D21A91FBF2F109B2418318E2F4
:105200000021C183C26B016B891AC1EBC111D0E9C6
:105210000C23D21A91FBF2F109B2418309E2D0E9E1
:105220000B12914284DDD0E90C2191428FDD426B5B
:10523000C16A91428BDDC16BB1F5A77F03DA026BC6
:10524000C16B914225DC0121C183026BC16B91428C
:105250000EDCC26B016B891AC1EBC111C26AC2F5C7
:10526000B472036B1A4491FBF2F109B24183E0E19D
:10527000C16BC1F5B471026B1144C1EBC111C26ABB
:10528000C2F5B472036B1A4491FBF2F109B2418387
:10529000CFE10021C183026BC16B891AC1EBC1113F
:1052A000D0E90C32D21A91FBF2F109B24183C0E18C
:1052B000FFE7016BB1F5967F77DB016BB1F5A27F5C
:1052C00073DCD0E90B1291423EDAD0E90C21914215
:1052D0003ADAC16B1E2903DD026BC16B914224DBFC
:1052E0000121C183026BC16B91420DDB026BC16B6B
:1052F000891AC1EBC111C2F5B472C36A1A4491FB99
:10530000F2F109B2418394E1016BC1F5B471C26B52
:105310001144C1EBC111026BC2F5B472C36A1A44E5
:1053200091FBF2F109B2418383E10021C183C26B99
:10533000016B891AC1EBC111D0E90C23D21A91FB80
:10534000F2F109B2418374E1D0E90B1291428EDA95
:10535000D0E90C2191428ADDC16B0A2902DA40F2C0
:105360006711C163026BC16B91420EDC0121C183E5
:10537000C26B016B891AC1EBC111D0E90B32D21A91
:1053800091FBF2F109B2418353E10021C183026B29
:10539000C16B891AC1EBC111D0E90C32D21A91FB51
:1053A000F2F109B2418344E1FFE7016BB1F5B47F4B
:1053B0006EDA016BB1F5A27F6ADDD0E90B12914282
:1053C00042DAD0E90C2191423EDAC26A416B914245
:1053D0003ADDC16B412903DD026BC16B914224DBD5
:1053E0000121C183026BC16B91420DDB026BC16B6A
:1053F000891AC1EBC111C2F5B472C36A1A4491FB98
:10540000F2F109B2418314E1016BC1F5B471C26BD1
:105410001144C1EBC111026BC2F5B472C36A1A44E4
:1054200091FBF2F109B2418303E10021C183C26B18
:10543000016B891AC1EBC111D0E90C23D21A91FB7F
:10544000F2F109B24183F4E0D0E90B1291421EDA85
:10545000D0E90C2191421ADAC26A416B914216DA04
:10546000026BC16B914214DC016B4139C26B8A4201
:105470000FDB0121C183C26B016B891AC1EBC11122
:10548000D0E90B32D21A91FBF2F109B24183D0E09C
:105490002CE0026BC16B914202DAC16B282913DC4C
:1054A0000021C183026BC16B91420EDB026BC16BA9
:1054B000891AC1EBC112416B01F5B471036BC91AB2
:1054C00092FBF1F109B24183B3E0C16B01F5B47114
:1054D000026B891AC1EBC112416B01F5B471036B08
:1054E000C91A92FBF1F109B24183A2E0D0E90B1293
:1054F00091424DDDD0E90C21914249DDC26A416BF8
:10550000914245DD026BC16B914213DB016B3C3173
:10551000C26B8A420EDA0121C183026BC16B891A08
:10552000C1EBC111D0E90B23D21A91FBF2F109B200
:1055300041837EE0026BC16B914203DBC16BB1F52D
:10554000A27F76DD0021C183026BC16B91420EDA2E
:10555000C26B016B891AC1EBC111426BC2F5B47207
:10556000036B1A4491FBF2F109B2418361E0C16B14
:10557000C1F5B471026B1144C1EBC111426BC2F5AC
:10558000B472036B1A4491FBF2F109B2418350E00B
:10559000D0E90B1291424CDDD0E90C21914248DD5B
:1055A000426BC16A914244DD026BC16B914203DDE3
:1055B000C16BB1F5967F25DB0121C183026BC16B05
:1055C00091420EDAC26B016B891AC1EBC111C26A3A
:1055D000C2F5B472036B1A4491FBF2F109B2418334
:1055E00027E0C16BC1F5B471026B1144C1EBC1116D
:1055F000C26AC2F5B472036B1A4491FBF2F109B2AC
:10560000418316E0026BC16B914212DD016B2331C5
:10561000C26B8A420DDC0021C183026BC16B891A07
:10562000C1EBC111D0E90C32D21A91FBF2F109B2EF
:105630004183B0F91A107D2902DD7F21418305E005
:10564000B0F91A10052901DA0021418370470000E2
:1056500070B505460E46002404E0285D00F00EF803
:10566000601CC4B2B442F8DB00BF4021024800F025
:10567000DCFA0028F9D070BD0038014010B50446AE
:105680002146054800F09AFB00BF8021024800F047
:10569000CCFA0028F9D010BD0038014070B505469D
:1056A0000E46002404E0285D00F00EF8601CC4B231
:1056B000B442F8DB00BF4021024800F0B6FA0028EF
:1056C000F9D070BD0044004010B50446214605489D
:1056D00000F074FB00BF8021024800F0A6FA002809
:1056E000F9D010BD0044004070B505460E460024B8
:1056F00004E0285D00F00EF8601CC4B2B442F8DB90
:1057000000BF4021024800F090FA0028F9D070BD97
:105710000048004010B504462146054800F04EFB05
:1057200000BF8021024800F080FA0028F9D010BDA7
:105730000048004010B50446204600F007F8204617
:1057400000F0E8F8204600F0C9F910BD10B586B0A9
:105750000446012144F20C00FCF7C6FC4FF4007033
:10576000ADF8140018208DF8170003208DF81600EE
:1057700005A92248FBF7E8FB4FF48060ADF8140060
:1057800004208DF8170005A91C48FBF7DDFB4FF43A
:105790000050ADF8140010208DF8170005A9184826
:1057A000FBF7D2FB25208DF8000002208DF80100C8
:1057B00003208DF8020001208DF803006846FCF7F5
:1057C00019FC01940020ADF80800ADF80A00ADF80E
:1057D0000C00ADF810000C20ADF80E0001A909482E
:1057E00000F080FA012240F22551064800F054FAF8
:1057F0000121044800F00DFA06B010BD0008014078
:10580000000C01400038014010B5002440F2255141
:105810003E4800F017FA002877D040F225513B4867
:1058200000F0E8F93948001D0088C1B2384800F09E
:1058300017FB3748407828281CD13548C078012804
:1058400063DB3348C078001D3149491C085C2928B6
:105850005BD1FDF70FF800BF05E000212C48401C8C
:105860000155601CC4B2132CF7DB0020284981F8D5
:1058700028004AE0264840783A281DD1244800797B
:10588000012842DB22480079C01D2149491C085CDF
:105890000A283AD1481EFDF76BFD002405E00021DF
:1058A0001B48401C0155601CC4B2132CF7DB0020C0
:1058B000174981F8280028E015484078902816D12B
:1058C000134890F828000E281FD11148FDF75CFA04
:1058D000002405E000210E48401C0155601CC4B2A4
:1058E000132CF7DB00200A4981F828000DE0002482
:1058F00005E000210648401C0155601CC4B2132C71
:10590000F7DB0020024981F8280010BD0038014073
:10591000F000002010B586B0044601210520FCF7F8
:10592000E3FB01212748FCF7BFFB0420ADF814007E
:1059300018208DF8170003208DF8160005A92248BD
:10594000FBF702FB0820ADF8140004208DF81700C7
:1059500005A91D48FBF7F8FA0220ADF81400102045
:105960008DF8170005A91848FBF7EEFA26208DF8E8
:10597000000002208DF801008DF8020001208DF852
:1059800003006846FCF736FB01940020ADF80800E0
:10599000ADF80A00ADF80C00ADF810000C20ADF821
:1059A0000E0001A9094800F09DF9012240F225519D
:1059B000064800F071F90121044800F02AF906B008
:1059C00010BD00000100020000080140004400403A
:1059D00010B5002440F225513E4800F033F900286C
:1059E00077D040F225513B4800F004F93948001DBA
:1059F0000088C1B2384800F033FA37484078282888
:105A00001CD13548C078012863DB3348C078001DBD
:105A10003149491C085C29285BD1FDF715FA00BF04
:105A200005E000212C48401C0155601CC4B2132C19
:105A3000F7DB0020284981F828004AE02648407812
:105A40003A281DD124480079012842DB22480079F8
:105A5000C01D2149491C085C0A283AD1481EFDF79F
:105A6000BBFC002405E000211B48401C0155601CC4
:105A7000C4B2132CF7DB0020174981F8280028E076
:105A800015484078902816D1134890F828000E2821
:105A90001FD11148FDF7A8F9002405E000210E48A8
:105AA000401C0155601CC4B2132CF7DB00200A49CE
:105AB00081F828000DE0002405E000210648401C84
:105AC0000155601CC4B2132CF7DB0020024981F899
:105AD000280010BD00440040A200002010B586B090
